{
  "contractName": "ChooseADoor",
  "abi": [
    {
      "inputs": [],
      "stateMutability": "nonpayable",
      "type": "constructor"
    },
    {
      "anonymous": false,
      "inputs": [
        {
          "indexed": true,
          "internalType": "address",
          "name": "player",
          "type": "address"
        },
        {
          "indexed": false,
          "internalType": "string",
          "name": "door",
          "type": "string"
        },
        {
          "indexed": false,
          "internalType": "string",
          "name": "result",
          "type": "string"
        },
        {
          "indexed": false,
          "internalType": "uint256",
          "name": "amount",
          "type": "uint256"
        }
      ],
      "name": "GameResult",
      "type": "event"
    },
    {
      "inputs": [],
      "name": "bankBalance",
      "outputs": [
        {
          "internalType": "uint256",
          "name": "",
          "type": "uint256"
        }
      ],
      "stateMutability": "view",
      "type": "function",
      "constant": true
    },
    {
      "inputs": [],
      "name": "gameMessage",
      "outputs": [
        {
          "internalType": "string",
          "name": "",
          "type": "string"
        }
      ],
      "stateMutability": "view",
      "type": "function",
      "constant": true
    },
    {
      "inputs": [],
      "name": "owner",
      "outputs": [
        {
          "internalType": "address",
          "name": "",
          "type": "address"
        }
      ],
      "stateMutability": "view",
      "type": "function",
      "constant": true
    },
    {
      "inputs": [],
      "name": "depositToBank",
      "outputs": [],
      "stateMutability": "payable",
      "type": "function",
      "payable": true
    },
    {
      "inputs": [
        {
          "internalType": "string",
          "name": "doorChoice",
          "type": "string"
        }
      ],
      "name": "play",
      "outputs": [],
      "stateMutability": "payable",
      "type": "function",
      "payable": true
    },
    {
      "inputs": [
        {
          "internalType": "uint256",
          "name": "amount",
          "type": "uint256"
        }
      ],
      "name": "withdrawFromBank",
      "outputs": [],
      "stateMutability": "nonpayable",
      "type": "function"
    },
    {
      "inputs": [],
      "name": "getBankBalance",
      "outputs": [
        {
          "internalType": "uint256",
          "name": "",
          "type": "uint256"
        }
      ],
      "stateMutability": "view",
      "type": "function",
      "constant": true
    },
    {
      "inputs": [
        {
          "internalType": "address",
          "name": "player",
          "type": "address"
        }
      ],
      "name": "getPlayerBalance",
      "outputs": [
        {
          "internalType": "uint256",
          "name": "",
          "type": "uint256"
        }
      ],
      "stateMutability": "view",
      "type": "function",
      "constant": true
    },
    {
      "inputs": [],
      "name": "getCurrentGameMessage",
      "outputs": [
        {
          "internalType": "string",
          "name": "",
          "type": "string"
        }
      ],
      "stateMutability": "view",
      "type": "function",
      "constant": true
    }
  ],
  "bytecode": "0x60806040526040518060400160405280601981526020017f57656c636f6d6520746f2043686f6f7365206120446f6f722100000000000000815250600290816200004a919062000319565b503480156200005857600080fd5b50336000806101000a81548173ffffffffffffffffffffffffffffffffffffffff021916908373ffffffffffffffffffffffffffffffffffffffff16021790555062000400565b600081519050919050565b7f4e487b7100000000000000000000000000000000000000000000000000000000600052604160045260246000fd5b7f4e487b7100000000000000000000000000000000000000000000000000000000600052602260045260246000fd5b600060028204905060018216806200012157607f821691505b602082108103620001375762000136620000d9565b5b50919050565b60008190508160005260206000209050919050565b60006020601f8301049050919050565b600082821b905092915050565b600060088302620001a17fffffffffffffffffffffffffffffffffffffffffffffffffffffffffffffffff8262000162565b620001ad868362000162565b95508019841693508086168417925050509392505050565b6000819050919050565b6000819050919050565b6000620001fa620001f4620001ee84620001c5565b620001cf565b620001c5565b9050919050565b6000819050919050565b6200021683620001d9565b6200022e620002258262000201565b8484546200016f565b825550505050565b600090565b6200024562000236565b620002528184846200020b565b505050565b5b818110156200027a576200026e6000826200023b565b60018101905062000258565b5050565b601f821115620002c95762000293816200013d565b6200029e8462000152565b81016020851015620002ae578190505b620002c6620002bd8562000152565b83018262000257565b50505b505050565b600082821c905092915050565b6000620002ee60001984600802620002ce565b1980831691505092915050565b6000620003098383620002db565b9150826002028217905092915050565b62000324826200009f565b67ffffffffffffffff81111562000340576200033f620000aa565b5b6200034c825462000108565b620003598282856200027e565b600060209050601f8311600181146200039157600084156200037c578287015190505b620003888582620002fb565b865550620003f8565b601f198416620003a1866200013d565b60005b82811015620003cb57848901518255600182019150602085019450602081019050620003a4565b86831015620003eb5784890151620003e7601f891682620002db565b8355505b6001600288020188555050505b505050505050565b61164580620004106000396000f3fe6080604052600436106100865760003560e01c8063718e630211610059578063718e6302146101355780637b83b50b146101515780638da5cb5b1461017c578063a1a5ba78146101a7578063e2734c93146101b157610086565b806323af875c1461008b57806328657aa5146100b65780633037f274146100e157806333686c0e1461010a575b600080fd5b34801561009757600080fd5b506100a06101ee565b6040516100ad9190610a92565b60405180910390f35b3480156100c257600080fd5b506100cb610280565b6040516100d89190610acd565b60405180910390f35b3480156100ed57600080fd5b5061010860048036038101906101039190610b28565b610286565b005b34801561011657600080fd5b5061011f610421565b60405161012c9190610a92565b60405180910390f35b61014f600480360381019061014a9190610c8a565b6104af565b005b34801561015d57600080fd5b506101666108c5565b6040516101739190610acd565b60405180910390f35b34801561018857600080fd5b506101916108cf565b60405161019e9190610d14565b60405180910390f35b6101af6108f3565b005b3480156101bd57600080fd5b506101d860048036038101906101d39190610d5b565b6109e1565b6040516101e59190610acd565b60405180910390f35b6060600280546101fd90610db7565b80601f016020809104026020016040519081016040528092919081815260200182805461022990610db7565b80156102765780601f1061024b57610100808354040283529160200191610276565b820191906000526020600020905b81548152906001019060200180831161025957829003601f168201915b5050505050905090565b60015481565b60008054906101000a900473ffffffffffffffffffffffffffffffffffffffff1673ffffffffffffffffffffffffffffffffffffffff163373ffffffffffffffffffffffffffffffffffffffff1614610314576040517f08c379a000000000000000000000000000000000000000000000000000000000815260040161030b90610e34565b60405180910390fd5b600154811115610359576040517f08c379a000000000000000000000000000000000000000000000000000000000815260040161035090610ea0565b60405180910390fd5b60008054906101000a900473ffffffffffffffffffffffffffffffffffffffff1673ffffffffffffffffffffffffffffffffffffffff166108fc829081150290604051600060405180830381858888f193505050501580156103bf573d6000803e3d6000fd5b5080600160008282546103d29190610eef565b925050819055506040518060400160405280602081526020017f5769746864726177616c2066726f6d2062616e6b207375636365737366756c2e8152506002908161041d91906110cf565b5050565b6002805461042e90610db7565b80601f016020809104026020016040519081016040528092919081815260200182805461045a90610db7565b80156104a75780601f1061047c576101008083540402835291602001916104a7565b820191906000526020600020905b81548152906001019060200180831161048a57829003601f168201915b505050505081565b600034116104f2576040517f08c379a00000000000000000000000000000000000000000000000000000000081526004016104e9906111ed565b60405180910390fd5b600060015411610537576040517f08c379a000000000000000000000000000000000000000000000000000000000815260040161052e90611259565b60405180910390fd5b6000349050606060405160200161054d906112d0565b60405160208183030381529060405280519060200120836040516020016105749190611316565b60405160208183030381529060405280519060200120036105f55781600160008282546105a1919061132d565b925050819055506040518060400160405280601e81526020017f446f6f7220413a20596f75206c6f737420616c6c20796f7572206265742e0000815250905080600290816105ef91906110cf565b5061085e565b604051602001610604906113ad565b604051602081830303815290604052805190602001208360405160200161062b9190611316565b60405160208183030381529060405280519060200120036107445781600154101561068b576040517f08c379a00000000000000000000000000000000000000000000000000000000081526004016106829061140e565b60405180910390fd5b3373ffffffffffffffffffffffffffffffffffffffff166108fc6002846106b2919061142e565b9081150290604051600060405180830381858888f193505050501580156106dd573d6000803e3d6000fd5b5081600160008282546106f09190610eef565b925050819055506040518060400160405280601d81526020017f446f6f7220423a20596f7520646f75626c656420796f757220626574210000008152509050806002908161073e91906110cf565b5061085d565b604051602001610753906114bc565b604051602081830303815290604052805190602001208360405160200161077a9190611316565b6040516020818303038152906040528051906020012003610821573373ffffffffffffffffffffffffffffffffffffffff166108fc836001546107bd919061132d565b9081150290604051600060405180830381858888f193505050501580156107e8573d6000803e3d6000fd5b506040518060600160405280602181526020016115ef602191399050806002908161081391906110cf565b50600060018190555061085c565b6040517f08c379a00000000000000000000000000000000000000000000000000000000081526004016108539061151d565b60405180910390fd5b5b5b806002908161086d91906110cf565b503373ffffffffffffffffffffffffffffffffffffffff167f3f8d5c9a5896a8e036b0fdfe21693b6555b814cad0476abff87885d7d2f953cd8483856040516108b89392919061153d565b60405180910390a2505050565b6000600154905090565b60008054906101000a900473ffffffffffffffffffffffffffffffffffffffff1681565b60008054906101000a900473ffffffffffffffffffffffffffffffffffffffff1673ffffffffffffffffffffffffffffffffffffffff163373ffffffffffffffffffffffffffffffffffffffff1614610981576040517f08c379a0000000000000000000000000000000000000000000000000000000008152600401610978906115ce565b60405180910390fd5b3460016000828254610993919061132d565b925050819055506040518060400160405280601581526020017f42616e6b2062616c616e636520757064617465642e0000000000000000000000815250600290816109de91906110cf565b50565b60008173ffffffffffffffffffffffffffffffffffffffff16319050919050565b600081519050919050565b600082825260208201905092915050565b60005b83811015610a3c578082015181840152602081019050610a21565b60008484015250505050565b6000601f19601f8301169050919050565b6000610a6482610a02565b610a6e8185610a0d565b9350610a7e818560208601610a1e565b610a8781610a48565b840191505092915050565b60006020820190508181036000830152610aac8184610a59565b905092915050565b6000819050919050565b610ac781610ab4565b82525050565b6000602082019050610ae26000830184610abe565b92915050565b6000604051905090565b600080fd5b600080fd5b610b0581610ab4565b8114610b1057600080fd5b50565b600081359050610b2281610afc565b92915050565b600060208284031215610b3e57610b3d610af2565b5b6000610b4c84828501610b13565b91505092915050565b600080fd5b600080fd5b7f4e487b7100000000000000000000000000000000000000000000000000000000600052604160045260246000fd5b610b9782610a48565b810181811067ffffffffffffffff82111715610bb657610bb5610b5f565b5b80604052505050565b6000610bc9610ae8565b9050610bd58282610b8e565b919050565b600067ffffffffffffffff821115610bf557610bf4610b5f565b5b610bfe82610a48565b9050602081019050919050565b82818337600083830152505050565b6000610c2d610c2884610bda565b610bbf565b905082815260208101848484011115610c4957610c48610b5a565b5b610c54848285610c0b565b509392505050565b600082601f830112610c7157610c70610b55565b5b8135610c81848260208601610c1a565b91505092915050565b600060208284031215610ca057610c9f610af2565b5b600082013567ffffffffffffffff811115610cbe57610cbd610af7565b5b610cca84828501610c5c565b91505092915050565b600073ffffffffffffffffffffffffffffffffffffffff82169050919050565b6000610cfe82610cd3565b9050919050565b610d0e81610cf3565b82525050565b6000602082019050610d296000830184610d05565b92915050565b610d3881610cf3565b8114610d4357600080fd5b50565b600081359050610d5581610d2f565b92915050565b600060208284031215610d7157610d70610af2565b5b6000610d7f84828501610d46565b91505092915050565b7f4e487b7100000000000000000000000000000000000000000000000000000000600052602260045260246000fd5b60006002820490506001821680610dcf57607f821691505b602082108103610de257610de1610d88565b5b50919050565b7f4f6e6c7920746865206f776e65722063616e2077697468647261770000000000600082015250565b6000610e1e601b83610a0d565b9150610e2982610de8565b602082019050919050565b60006020820190508181036000830152610e4d81610e11565b9050919050565b7f496e73756666696369656e742066756e647320696e207468652062616e6b0000600082015250565b6000610e8a601e83610a0d565b9150610e9582610e54565b602082019050919050565b60006020820190508181036000830152610eb981610e7d565b9050919050565b7f4e487b7100000000000000000000000000000000000000000000000000000000600052601160045260246000fd5b6000610efa82610ab4565b9150610f0583610ab4565b9250828203905081811115610f1d57610f1c610ec0565b5b92915050565b60008190508160005260206000209050919050565b60006020601f8301049050919050565b600082821b905092915050565b600060088302610f857fffffffffffffffffffffffffffffffffffffffffffffffffffffffffffffffff82610f48565b610f8f8683610f48565b95508019841693508086168417925050509392505050565b6000819050919050565b6000610fcc610fc7610fc284610ab4565b610fa7565b610ab4565b9050919050565b6000819050919050565b610fe683610fb1565b610ffa610ff282610fd3565b848454610f55565b825550505050565b600090565b61100f611002565b61101a818484610fdd565b505050565b5b8181101561103e57611033600082611007565b600181019050611020565b5050565b601f8211156110835761105481610f23565b61105d84610f38565b8101602085101561106c578190505b61108061107885610f38565b83018261101f565b50505b505050565b600082821c905092915050565b60006110a660001984600802611088565b1980831691505092915050565b60006110bf8383611095565b9150826002028217905092915050565b6110d882610a02565b67ffffffffffffffff8111156110f1576110f0610b5f565b5b6110fb8254610db7565b611106828285611042565b600060209050601f8311600181146111395760008415611127578287015190505b61113185826110b3565b865550611199565b601f19841661114786610f23565b60005b8281101561116f5784890151825560018201915060208501945060208101905061114a565b8683101561118c5784890151611188601f891682611095565b8355505b6001600288020188555050505b505050505050565b7f596f75206d7573742062657420736f6d6520616d6f756e740000000000000000600082015250565b60006111d7601883610a0d565b91506111e2826111a1565b602082019050919050565b60006020820190508181036000830152611206816111ca565b9050919050565b7f5468652062616e6b206d75737420686176652066756e64730000000000000000600082015250565b6000611243601883610a0d565b915061124e8261120d565b602082019050919050565b6000602082019050818103600083015261127281611236565b9050919050565b600081905092915050565b7f4100000000000000000000000000000000000000000000000000000000000000600082015250565b60006112ba600183611279565b91506112c582611284565b600182019050919050565b60006112db826112ad565b9150819050919050565b60006112f082610a02565b6112fa8185611279565b935061130a818560208601610a1e565b80840191505092915050565b600061132282846112e5565b915081905092915050565b600061133882610ab4565b915061134383610ab4565b925082820190508082111561135b5761135a610ec0565b5b92915050565b7f4200000000000000000000000000000000000000000000000000000000000000600082015250565b6000611397600183611279565b91506113a282611361565b600182019050919050565b60006113b88261138a565b9150819050919050565b7f42616e6b2063616e277420636f76657220746865206265740000000000000000600082015250565b60006113f8601883610a0d565b9150611403826113c2565b602082019050919050565b60006020820190508181036000830152611427816113eb565b9050919050565b600061143982610ab4565b915061144483610ab4565b925082820261145281610ab4565b9150828204841483151761146957611468610ec0565b5b5092915050565b7f4300000000000000000000000000000000000000000000000000000000000000600082015250565b60006114a6600183611279565b91506114b182611470565b600182019050919050565b60006114c782611499565b9150819050919050565b7f496e76616c696420646f6f722063686f69636500000000000000000000000000600082015250565b6000611507601383610a0d565b9150611512826114d1565b602082019050919050565b60006020820190508181036000830152611536816114fa565b9050919050565b600060608201905081810360008301526115578186610a59565b9050818103602083015261156b8185610a59565b905061157a6040830184610abe565b949350505050565b7f4f6e6c7920746865206f776e65722063616e206465706f736974000000000000600082015250565b60006115b8601a83610a0d565b91506115c382611582565b602082019050919050565b600060208201905081810360008301526115e7816115ab565b905091905056fe446f6f7220433a20596f7520776f6e207468652062616e6b206a61636b706f7421a26469706673582212203403e55a646bec5bea953cc5957d43bf63f0157ee11a673dd5d7fb3c117d1fef64736f6c63430008110033",
  "immutableReferences": {},
  "source": "// SPDX-License-Identifier: MIT\n//pragma solidity >=0.4.22 <0.9.0;\n\n//contract HelloWorld {\n\n//  string public message;\n\n//  constructor(string memory init_message) public {\n//    message = init_message;\n//  }\n\n//  function sayMessage() public view returns (string memory){\n//    return message;\n//  }\n\n//  function setMessage(string memory new_message) payable external {\n//    require(msg.value > 0.01 ether);\n//    message = new_message;\n//  }\n\npragma solidity ^0.8.0;\n\ncontract ChooseADoor {\n    address public owner;\n    uint256 public bankBalance;\n    string public gameMessage = \"Welcome to Choose a Door!\";\n\n    event GameResult(address indexed player, string door, string result, uint256 amount);\n\n    constructor() {\n        owner = msg.sender;\n    }\n\n    function depositToBank() external payable {\n        require(msg.sender == owner, \"Only the owner can deposit\");\n        bankBalance += msg.value;\n        gameMessage = \"Bank balance updated.\";\n    }\n\n    function play(string memory doorChoice) external payable {\n        require(msg.value > 0, \"You must bet some amount\");\n        require(bankBalance > 0, \"The bank must have funds\");\n        uint256 betAmount = msg.value;\n        string memory result;\n\n        if (keccak256(abi.encodePacked(doorChoice)) == keccak256(abi.encodePacked(\"A\"))) {\n            // Door A: Lose all your money\n            bankBalance += betAmount;\n            result = \"Door A: You lost all your bet.\";\n            gameMessage = result;\n        } else if (keccak256(abi.encodePacked(doorChoice)) == keccak256(abi.encodePacked(\"B\"))) {\n            // Door B: Double your bet\n            require(bankBalance >= betAmount, \"Bank can't cover the bet\");\n            payable(msg.sender).transfer(betAmount * 2);\n            bankBalance -= betAmount;\n            result = \"Door B: You doubled your bet!\";\n            gameMessage = result;\n        } else if (keccak256(abi.encodePacked(doorChoice)) == keccak256(abi.encodePacked(\"C\"))) {\n            // Door C: Win the bank jackpot\n            payable(msg.sender).transfer(bankBalance + betAmount);\n            result = \"Door C: You won the bank jackpot!\";\n            gameMessage = result;\n            bankBalance = 0;\n        } else {\n            revert(\"Invalid door choice\");\n        }\n\n        gameMessage = result;\n        emit GameResult(msg.sender, doorChoice, result, betAmount);\n    }\n\n    function withdrawFromBank(uint256 amount) external {\n        require(msg.sender == owner, \"Only the owner can withdraw\");\n        require(amount <= bankBalance, \"Insufficient funds in the bank\");\n        payable(owner).transfer(amount);\n        bankBalance -= amount;\n        gameMessage = \"Withdrawal from bank successful.\";\n    }\n\n      function getBankBalance() public view returns (uint256) {\n        return bankBalance;\n    }\n\n    function getPlayerBalance(address player) public view returns (uint256) {\n        return player.balance;\n    }\n\n    function getCurrentGameMessage() public view returns (string memory) {\n        return gameMessage;\n    }\n}\n\n\n",
  "sourcePath": "C:\\Users\\haris\\Downloads\\lecture_4_tasks\\task_1\\contracts\\HelloWorld.sol",
  "compiler": {
    "name": "solc",
    "version": "0.8.17+commit.8df45f5f.Emscripten.clang"
  },
  "schemaVersion": "3.4.16",
  "updatedAt": "2023-12-12T23:05:51.227Z",
  "networkType": "ethereum",
  "devdoc": {
    "kind": "dev",
    "methods": {},
    "version": 1
  },
  "userdoc": {
    "kind": "user",
    "methods": {},
    "version": 1
  }
}